{"contracts/TokenizedBallot.sol":{"TokenizedBallot":{"abi":[{"inputs":[{"internalType":"bytes32[]","name":"proposalNames","type":"bytes32[]"},{"internalType":"address","name":"_tokenContract","type":"address"},{"internalType":"uint256","name":"_targetBlockNumber","type":"uint256"}],"stateMutability":"nonpayable","type":"constructor"},{"inputs":[{"internalType":"uint256","name":"","type":"uint256"}],"name":"proposals","outputs":[{"internalType":"bytes32","name":"name","type":"bytes32"},{"internalType":"uint256","name":"voteCount","type":"uint256"}],"stateMutability":"view","type":"function"},{"inputs":[],"name":"targetBlockNumber","outputs":[{"internalType":"uint256","name":"","type":"uint256"}],"stateMutability":"view","type":"function"},{"inputs":[],"name":"tokenContract","outputs":[{"internalType":"contract IMyToken","name":"","type":"address"}],"stateMutability":"view","type":"function"},{"inputs":[{"internalType":"uint256","name":"proposal","type":"uint256"},{"internalType":"uint256","name":"amount","type":"uint256"}],"name":"vote","outputs":[],"stateMutability":"nonpayable","type":"function"},{"inputs":[{"internalType":"address","name":"account","type":"address"}],"name":"votingPower","outputs":[{"internalType":"uint256","name":"","type":"uint256"}],"stateMutability":"view","type":"function"},{"inputs":[{"internalType":"address","name":"","type":"address"}],"name":"votingPowerSpent","outputs":[{"internalType":"uint256","name":"","type":"uint256"}],"stateMutability":"view","type":"function"},{"inputs":[],"name":"winnerName","outputs":[{"internalType":"bytes32","name":"winnerName_","type":"bytes32"}],"stateMutability":"view","type":"function"},{"inputs":[],"name":"winningProposal","outputs":[{"internalType":"uint256","name":"winningProposal_","type":"uint256"}],"stateMutability":"view","type":"function"}],"evm":{"bytecode":{"linkReferences":{},"object":"60806040523480156200001157600080fd5b5060405162000e0838038062000e08833981810160405281019062000037919062000384565b81600160006101000a81548173ffffffffffffffffffffffffffffffffffffffff021916908373ffffffffffffffffffffffffffffffffffffffff1602179055508060028190555060005b8351811015620001165760006040518060400160405280868481518110620000af57620000ae620003ff565b5b60200260200101518152602001600081525090806001815401808255809150506001900390600052602060002090600202016000909190919091506000820151816000015560208201518160010155505080806200010d906200045d565b91505062000082565b50505050620004aa565b6000604051905090565b600080fd5b600080fd5b600080fd5b6000601f19601f8301169050919050565b7f4e487b7100000000000000000000000000000000000000000000000000000000600052604160045260246000fd5b620001848262000139565b810181811067ffffffffffffffff82111715620001a657620001a56200014a565b5b80604052505050565b6000620001bb62000120565b9050620001c9828262000179565b919050565b600067ffffffffffffffff821115620001ec57620001eb6200014a565b5b602082029050602081019050919050565b600080fd5b6000819050919050565b620002178162000202565b81146200022357600080fd5b50565b60008151905062000237816200020c565b92915050565b6000620002546200024e84620001ce565b620001af565b905080838252602082019050602084028301858111156200027a5762000279620001fd565b5b835b81811015620002a7578062000292888262000226565b8452602084019350506020810190506200027c565b5050509392505050565b600082601f830112620002c957620002c862000134565b5b8151620002db8482602086016200023d565b91505092915050565b600073ffffffffffffffffffffffffffffffffffffffff82169050919050565b60006200031182620002e4565b9050919050565b620003238162000304565b81146200032f57600080fd5b50565b600081519050620003438162000318565b92915050565b6000819050919050565b6200035e8162000349565b81146200036a57600080fd5b50565b6000815190506200037e8162000353565b92915050565b600080600060608486031215620003a0576200039f6200012a565b5b600084015167ffffffffffffffff811115620003c157620003c06200012f565b5b620003cf86828701620002b1565b9350506020620003e28682870162000332565b9250506040620003f5868287016200036d565b9150509250925092565b7f4e487b7100000000000000000000000000000000000000000000000000000000600052603260045260246000fd5b7f4e487b7100000000000000000000000000000000000000000000000000000000600052601160045260246000fd5b60006200046a8262000349565b91507fffffffffffffffffffffffffffffffffffffffffffffffffffffffffffffffff82036200049f576200049e6200042e565b5b600182019050919050565b61094e80620004ba6000396000f3fe608060405234801561001057600080fd5b50600436106100885760003560e01c8063a72003511161005b578063a720035114610118578063b384abef14610148578063c07473f614610164578063e2ba53f01461019457610088565b8063013cf08b1461008d5780632a8cd29e146100be57806355a373d6146100dc578063609ff1bd146100fa575b600080fd5b6100a760048036038101906100a291906104f4565b6101b2565b6040516100b5929190610549565b60405180910390f35b6100c66101e6565b6040516100d39190610572565b60405180910390f35b6100e46101ec565b6040516100f1919061060c565b60405180910390f35b610102610212565b60405161010f9190610572565b60405180910390f35b610132600480360381019061012d9190610665565b61029a565b60405161013f9190610572565b60405180910390f35b610162600480360381019061015d9190610692565b6102b2565b005b61017e60048036038101906101799190610665565b610393565b60405161018b9190610572565b60405180910390f35b61019c610486565b6040516101a991906106d2565b60405180910390f35b600081815481106101c257600080fd5b90600052602060002090600202016000915090508060000154908060010154905082565b60025481565b600160009054906101000a900473ffffffffffffffffffffffffffffffffffffffff1681565b6000806000905060005b60008054905081101561029557816000828154811061023e5761023d6106ed565b5b9060005260206000209060020201600101541115610282576000818154811061026a576102696106ed565b5b90600052602060002090600202016001015491508092505b808061028d9061074b565b91505061021c565b505090565b60036020528060005260406000206000915090505481565b806102bc33610393565b10156102fd576040517f08c379a00000000000000000000000000000000000000000000000000000000081526004016102f490610816565b60405180910390fd5b80600360003373ffffffffffffffffffffffffffffffffffffffff1673ffffffffffffffffffffffffffffffffffffffff168152602001908152602001600020600082825461034c9190610836565b925050819055508060008381548110610368576103676106ed565b5b906000526020600020906002020160010160008282546103889190610836565b925050819055505050565b6000600360008373ffffffffffffffffffffffffffffffffffffffff1673ffffffffffffffffffffffffffffffffffffffff16815260200190815260200160002054600160009054906101000a900473ffffffffffffffffffffffffffffffffffffffff1673ffffffffffffffffffffffffffffffffffffffff16633a46b1a8846002546040518363ffffffff1660e01b8152600401610434929190610879565b602060405180830381865afa158015610451573d6000803e3d6000fd5b505050506040513d601f19601f8201168201806040525081019061047591906108b7565b61047f91906108e4565b9050919050565b600080610491610212565b815481106104a2576104a16106ed565b5b906000526020600020906002020160000154905090565b600080fd5b6000819050919050565b6104d1816104be565b81146104dc57600080fd5b50565b6000813590506104ee816104c8565b92915050565b60006020828403121561050a576105096104b9565b5b6000610518848285016104df565b91505092915050565b6000819050919050565b61053481610521565b82525050565b610543816104be565b82525050565b600060408201905061055e600083018561052b565b61056b602083018461053a565b9392505050565b6000602082019050610587600083018461053a565b92915050565b600073ffffffffffffffffffffffffffffffffffffffff82169050919050565b6000819050919050565b60006105d26105cd6105c88461058d565b6105ad565b61058d565b9050919050565b60006105e4826105b7565b9050919050565b60006105f6826105d9565b9050919050565b610606816105eb565b82525050565b600060208201905061062160008301846105fd565b92915050565b60006106328261058d565b9050919050565b61064281610627565b811461064d57600080fd5b50565b60008135905061065f81610639565b92915050565b60006020828403121561067b5761067a6104b9565b5b600061068984828501610650565b91505092915050565b600080604083850312156106a9576106a86104b9565b5b60006106b7858286016104df565b92505060206106c8858286016104df565b9150509250929050565b60006020820190506106e7600083018461052b565b92915050565b7f4e487b7100000000000000000000000000000000000000000000000000000000600052603260045260246000fd5b7f4e487b7100000000000000000000000000000000000000000000000000000000600052601160045260246000fd5b6000610756826104be565b91507fffffffffffffffffffffffffffffffffffffffffffffffffffffffffffffffff82036107885761078761071c565b5b600182019050919050565b600082825260208201905092915050565b7f546f6b656e697a656442616c6c6f743a20747279696e6720746f20766f74652060008201527f6d6f7265207468616e20616c6c6f776564000000000000000000000000000000602082015250565b6000610800603183610793565b915061080b826107a4565b604082019050919050565b6000602082019050818103600083015261082f816107f3565b9050919050565b6000610841826104be565b915061084c836104be565b92508282019050808211156108645761086361071c565b5b92915050565b61087381610627565b82525050565b600060408201905061088e600083018561086a565b61089b602083018461053a565b9392505050565b6000815190506108b1816104c8565b92915050565b6000602082840312156108cd576108cc6104b9565b5b60006108db848285016108a2565b91505092915050565b60006108ef826104be565b91506108fa836104be565b92508282039050818111156109125761091161071c565b5b9291505056fea2646970667358221220ba582579a5718abcf3f89f3cd488c8bc3ce25f8aa923b22f6ba9b2a444bf151f64736f6c63430008130033","opcodes":"PUSH1 0x80 PUSH1 0x40 MSTORE CALLVALUE DUP1 ISZERO PUSH3 0x11 JUMPI PUSH1 0x0 DUP1 REVERT JUMPDEST POP PUSH1 0x40 MLOAD PUSH3 0xE08 CODESIZE SUB DUP1 PUSH3 0xE08 DUP4 CODECOPY DUP2 DUP2 ADD PUSH1 0x40 MSTORE DUP2 ADD SWAP1 PUSH3 0x37 SWAP2 SWAP1 PUSH3 0x384 JUMP JUMPDEST DUP2 PUSH1 0x1 PUSH1 0x0 PUSH2 0x100 EXP DUP2 SLOAD DUP2 PUSH20 0xFFFFFFFFFFFFFFFFFFFFFFFFFFFFFFFFFFFFFFFF MUL NOT AND SWAP1 DUP4 PUSH20 0xFFFFFFFFFFFFFFFFFFFFFFFFFFFFFFFFFFFFFFFF AND MUL OR SWAP1 SSTORE POP DUP1 PUSH1 0x2 DUP2 SWAP1 SSTORE POP PUSH1 0x0 JUMPDEST DUP4 MLOAD DUP2 LT ISZERO PUSH3 0x116 JUMPI PUSH1 0x0 PUSH1 0x40 MLOAD DUP1 PUSH1 0x40 ADD PUSH1 0x40 MSTORE DUP1 DUP7 DUP5 DUP2 MLOAD DUP2 LT PUSH3 0xAF JUMPI PUSH3 0xAE PUSH3 0x3FF JUMP JUMPDEST JUMPDEST PUSH1 0x20 MUL PUSH1 0x20 ADD ADD MLOAD DUP2 MSTORE PUSH1 0x20 ADD PUSH1 0x0 DUP2 MSTORE POP SWAP1 DUP1 PUSH1 0x1 DUP2 SLOAD ADD DUP1 DUP3 SSTORE DUP1 SWAP2 POP POP PUSH1 0x1 SWAP1 SUB SWAP1 PUSH1 0x0 MSTORE PUSH1 0x20 PUSH1 0x0 KECCAK256 SWAP1 PUSH1 0x2 MUL ADD PUSH1 0x0 SWAP1 SWAP2 SWAP1 SWAP2 SWAP1 SWAP2 POP PUSH1 0x0 DUP3 ADD MLOAD DUP2 PUSH1 0x0 ADD SSTORE PUSH1 0x20 DUP3 ADD MLOAD DUP2 PUSH1 0x1 ADD SSTORE POP POP DUP1 DUP1 PUSH3 0x10D SWAP1 PUSH3 0x45D JUMP JUMPDEST SWAP2 POP POP PUSH3 0x82 JUMP JUMPDEST POP POP POP POP PUSH3 0x4AA JUMP JUMPDEST PUSH1 0x0 PUSH1 0x40 MLOAD SWAP1 POP SWAP1 JUMP JUMPDEST PUSH1 0x0 DUP1 REVERT JUMPDEST PUSH1 0x0 DUP1 REVERT JUMPDEST PUSH1 0x0 DUP1 REVERT JUMPDEST PUSH1 0x0 PUSH1 0x1F NOT PUSH1 0x1F DUP4 ADD AND SWAP1 POP SWAP2 SWAP1 POP JUMP JUMPDEST PUSH32 0x4E487B7100000000000000000000000000000000000000000000000000000000 PUSH1 0x0 MSTORE PUSH1 0x41 PUSH1 0x4 MSTORE PUSH1 0x24 PUSH1 0x0 REVERT JUMPDEST PUSH3 0x184 DUP3 PUSH3 0x139 JUMP JUMPDEST DUP2 ADD DUP2 DUP2 LT PUSH8 0xFFFFFFFFFFFFFFFF DUP3 GT OR ISZERO PUSH3 0x1A6 JUMPI PUSH3 0x1A5 PUSH3 0x14A JUMP JUMPDEST JUMPDEST DUP1 PUSH1 0x40 MSTORE POP POP POP JUMP JUMPDEST PUSH1 0x0 PUSH3 0x1BB PUSH3 0x120 JUMP JUMPDEST SWAP1 POP PUSH3 0x1C9 DUP3 DUP3 PUSH3 0x179 JUMP JUMPDEST SWAP2 SWAP1 POP JUMP JUMPDEST PUSH1 0x0 PUSH8 0xFFFFFFFFFFFFFFFF DUP3 GT ISZERO PUSH3 0x1EC JUMPI PUSH3 0x1EB PUSH3 0x14A JUMP JUMPDEST JUMPDEST PUSH1 0x20 DUP3 MUL SWAP1 POP PUSH1 0x20 DUP2 ADD SWAP1 POP SWAP2 SWAP1 POP JUMP JUMPDEST PUSH1 0x0 DUP1 REVERT JUMPDEST PUSH1 0x0 DUP2 SWAP1 POP SWAP2 SWAP1 POP JUMP JUMPDEST PUSH3 0x217 DUP2 PUSH3 0x202 JUMP JUMPDEST DUP2 EQ PUSH3 0x223 JUMPI PUSH1 0x0 DUP1 REVERT JUMPDEST POP JUMP JUMPDEST PUSH1 0x0 DUP2 MLOAD SWAP1 POP PUSH3 0x237 DUP2 PUSH3 0x20C JUMP JUMPDEST SWAP3 SWAP2 POP POP JUMP JUMPDEST PUSH1 0x0 PUSH3 0x254 PUSH3 0x24E DUP5 PUSH3 0x1CE JUMP JUMPDEST PUSH3 0x1AF JUMP JUMPDEST SWAP1 POP DUP1 DUP4 DUP3 MSTORE PUSH1 0x20 DUP3 ADD SWAP1 POP PUSH1 0x20 DUP5 MUL DUP4 ADD DUP6 DUP2 GT ISZERO PUSH3 0x27A JUMPI PUSH3 0x279 PUSH3 0x1FD JUMP JUMPDEST JUMPDEST DUP4 JUMPDEST DUP2 DUP2 LT ISZERO PUSH3 0x2A7 JUMPI DUP1 PUSH3 0x292 DUP9 DUP3 PUSH3 0x226 JUMP JUMPDEST DUP5 MSTORE PUSH1 0x20 DUP5 ADD SWAP4 POP POP PUSH1 0x20 DUP2 ADD SWAP1 POP PUSH3 0x27C JUMP JUMPDEST POP POP POP SWAP4 SWAP3 POP POP POP JUMP JUMPDEST PUSH1 0x0 DUP3 PUSH1 0x1F DUP4 ADD SLT PUSH3 0x2C9 JUMPI PUSH3 0x2C8 PUSH3 0x134 JUMP JUMPDEST JUMPDEST DUP2 MLOAD PUSH3 0x2DB DUP5 DUP3 PUSH1 0x20 DUP7 ADD PUSH3 0x23D JUMP JUMPDEST SWAP2 POP POP SWAP3 SWAP2 POP POP JUMP JUMPDEST PUSH1 0x0 PUSH20 0xFFFFFFFFFFFFFFFFFFFFFFFFFFFFFFFFFFFFFFFF DUP3 AND SWAP1 POP SWAP2 SWAP1 POP JUMP JUMPDEST PUSH1 0x0 PUSH3 0x311 DUP3 PUSH3 0x2E4 JUMP JUMPDEST SWAP1 POP SWAP2 SWAP1 POP JUMP JUMPDEST PUSH3 0x323 DUP2 PUSH3 0x304 JUMP JUMPDEST DUP2 EQ PUSH3 0x32F JUMPI PUSH1 0x0 DUP1 REVERT JUMPDEST POP JUMP JUMPDEST PUSH1 0x0 DUP2 MLOAD SWAP1 POP PUSH3 0x343 DUP2 PUSH3 0x318 JUMP JUMPDEST SWAP3 SWAP2 POP POP JUMP JUMPDEST PUSH1 0x0 DUP2 SWAP1 POP SWAP2 SWAP1 POP JUMP JUMPDEST PUSH3 0x35E DUP2 PUSH3 0x349 JUMP JUMPDEST DUP2 EQ PUSH3 0x36A JUMPI PUSH1 0x0 DUP1 REVERT JUMPDEST POP JUMP JUMPDEST PUSH1 0x0 DUP2 MLOAD SWAP1 POP PUSH3 0x37E DUP2 PUSH3 0x353 JUMP JUMPDEST SWAP3 SWAP2 POP POP JUMP JUMPDEST PUSH1 0x0 DUP1 PUSH1 0x0 PUSH1 0x60 DUP5 DUP7 SUB SLT ISZERO PUSH3 0x3A0 JUMPI PUSH3 0x39F PUSH3 0x12A JUMP JUMPDEST JUMPDEST PUSH1 0x0 DUP5 ADD MLOAD PUSH8 0xFFFFFFFFFFFFFFFF DUP2 GT ISZERO PUSH3 0x3C1 JUMPI PUSH3 0x3C0 PUSH3 0x12F JUMP JUMPDEST JUMPDEST PUSH3 0x3CF DUP7 DUP3 DUP8 ADD PUSH3 0x2B1 JUMP JUMPDEST SWAP4 POP POP PUSH1 0x20 PUSH3 0x3E2 DUP7 DUP3 DUP8 ADD PUSH3 0x332 JUMP JUMPDEST SWAP3 POP POP PUSH1 0x40 PUSH3 0x3F5 DUP7 DUP3 DUP8 ADD PUSH3 0x36D JUMP JUMPDEST SWAP2 POP POP SWAP3 POP SWAP3 POP SWAP3 JUMP JUMPDEST PUSH32 0x4E487B7100000000000000000000000000000000000000000000000000000000 PUSH1 0x0 MSTORE PUSH1 0x32 PUSH1 0x4 MSTORE PUSH1 0x24 PUSH1 0x0 REVERT JUMPDEST PUSH32 0x4E487B7100000000000000000000000000000000000000000000000000000000 PUSH1 0x0 MSTORE PUSH1 0x11 PUSH1 0x4 MSTORE PUSH1 0x24 PUSH1 0x0 REVERT JUMPDEST PUSH1 0x0 PUSH3 0x46A DUP3 PUSH3 0x349 JUMP JUMPDEST SWAP2 POP PUSH32 0xFFFFFFFFFFFFFFFFFFFFFFFFFFFFFFFFFFFFFFFFFFFFFFFFFFFFFFFFFFFFFFFF DUP3 SUB PUSH3 0x49F JUMPI PUSH3 0x49E PUSH3 0x42E JUMP JUMPDEST JUMPDEST PUSH1 0x1 DUP3 ADD SWAP1 POP SWAP2 SWAP1 POP JUMP JUMPDEST PUSH2 0x94E DUP1 PUSH3 0x4BA PUSH1 0x0 CODECOPY PUSH1 0x0 RETURN INVALID PUSH1 0x80 PUSH1 0x40 MSTORE CALLVALUE DUP1 ISZERO PUSH2 0x10 JUMPI PUSH1 0x0 DUP1 REVERT JUMPDEST POP PUSH1 0x4 CALLDATASIZE LT PUSH2 0x88 JUMPI PUSH1 0x0 CALLDATALOAD PUSH1 0xE0 SHR DUP1 PUSH4 0xA7200351 GT PUSH2 0x5B JUMPI DUP1 PUSH4 0xA7200351 EQ PUSH2 0x118 JUMPI DUP1 PUSH4 0xB384ABEF EQ PUSH2 0x148 JUMPI DUP1 PUSH4 0xC07473F6 EQ PUSH2 0x164 JUMPI DUP1 PUSH4 0xE2BA53F0 EQ PUSH2 0x194 JUMPI PUSH2 0x88 JUMP JUMPDEST DUP1 PUSH4 0x13CF08B EQ PUSH2 0x8D JUMPI DUP1 PUSH4 0x2A8CD29E EQ PUSH2 0xBE JUMPI DUP1 PUSH4 0x55A373D6 EQ PUSH2 0xDC JUMPI DUP1 PUSH4 0x609FF1BD EQ PUSH2 0xFA JUMPI JUMPDEST PUSH1 0x0 DUP1 REVERT JUMPDEST PUSH2 0xA7 PUSH1 0x4 DUP1 CALLDATASIZE SUB DUP2 ADD SWAP1 PUSH2 0xA2 SWAP2 SWAP1 PUSH2 0x4F4 JUMP JUMPDEST PUSH2 0x1B2 JUMP JUMPDEST PUSH1 0x40 MLOAD PUSH2 0xB5 SWAP3 SWAP2 SWAP1 PUSH2 0x549 JUMP JUMPDEST PUSH1 0x40 MLOAD DUP1 SWAP2 SUB SWAP1 RETURN JUMPDEST PUSH2 0xC6 PUSH2 0x1E6 JUMP JUMPDEST PUSH1 0x40 MLOAD PUSH2 0xD3 SWAP2 SWAP1 PUSH2 0x572 JUMP JUMPDEST PUSH1 0x40 MLOAD DUP1 SWAP2 SUB SWAP1 RETURN JUMPDEST PUSH2 0xE4 PUSH2 0x1EC JUMP JUMPDEST PUSH1 0x40 MLOAD PUSH2 0xF1 SWAP2 SWAP1 PUSH2 0x60C JUMP JUMPDEST PUSH1 0x40 MLOAD DUP1 SWAP2 SUB SWAP1 RETURN JUMPDEST PUSH2 0x102 PUSH2 0x212 JUMP JUMPDEST PUSH1 0x40 MLOAD PUSH2 0x10F SWAP2 SWAP1 PUSH2 0x572 JUMP JUMPDEST PUSH1 0x40 MLOAD DUP1 SWAP2 SUB SWAP1 RETURN JUMPDEST PUSH2 0x132 PUSH1 0x4 DUP1 CALLDATASIZE SUB DUP2 ADD SWAP1 PUSH2 0x12D SWAP2 SWAP1 PUSH2 0x665 JUMP JUMPDEST PUSH2 0x29A JUMP JUMPDEST PUSH1 0x40 MLOAD PUSH2 0x13F SWAP2 SWAP1 PUSH2 0x572 JUMP JUMPDEST PUSH1 0x40 MLOAD DUP1 SWAP2 SUB SWAP1 RETURN JUMPDEST PUSH2 0x162 PUSH1 0x4 DUP1 CALLDATASIZE SUB DUP2 ADD SWAP1 PUSH2 0x15D SWAP2 SWAP1 PUSH2 0x692 JUMP JUMPDEST PUSH2 0x2B2 JUMP JUMPDEST STOP JUMPDEST PUSH2 0x17E PUSH1 0x4 DUP1 CALLDATASIZE SUB DUP2 ADD SWAP1 PUSH2 0x179 SWAP2 SWAP1 PUSH2 0x665 JUMP JUMPDEST PUSH2 0x393 JUMP JUMPDEST PUSH1 0x40 MLOAD PUSH2 0x18B SWAP2 SWAP1 PUSH2 0x572 JUMP JUMPDEST PUSH1 0x40 MLOAD DUP1 SWAP2 SUB SWAP1 RETURN JUMPDEST PUSH2 0x19C PUSH2 0x486 JUMP JUMPDEST PUSH1 0x40 MLOAD PUSH2 0x1A9 SWAP2 SWAP1 PUSH2 0x6D2 JUMP JUMPDEST PUSH1 0x40 MLOAD DUP1 SWAP2 SUB SWAP1 RETURN JUMPDEST PUSH1 0x0 DUP2 DUP2 SLOAD DUP2 LT PUSH2 0x1C2 JUMPI PUSH1 0x0 DUP1 REVERT JUMPDEST SWAP1 PUSH1 0x0 MSTORE PUSH1 0x20 PUSH1 0x0 KECCAK256 SWAP1 PUSH1 0x2 MUL ADD PUSH1 0x0 SWAP2 POP SWAP1 POP DUP1 PUSH1 0x0 ADD SLOAD SWAP1 DUP1 PUSH1 0x1 ADD SLOAD SWAP1 POP DUP3 JUMP JUMPDEST PUSH1 0x2 SLOAD DUP2 JUMP JUMPDEST PUSH1 0x1 PUSH1 0x0 SWAP1 SLOAD SWAP1 PUSH2 0x100 EXP SWAP1 DIV PUSH20 0xFFFFFFFFFFFFFFFFFFFFFFFFFFFFFFFFFFFFFFFF AND DUP2 JUMP JUMPDEST PUSH1 0x0 DUP1 PUSH1 0x0 SWAP1 POP PUSH1 0x0 JUMPDEST PUSH1 0x0 DUP1 SLOAD SWAP1 POP DUP2 LT ISZERO PUSH2 0x295 JUMPI DUP2 PUSH1 0x0 DUP3 DUP2 SLOAD DUP2 LT PUSH2 0x23E JUMPI PUSH2 0x23D PUSH2 0x6ED JUMP JUMPDEST JUMPDEST SWAP1 PUSH1 0x0 MSTORE PUSH1 0x20 PUSH1 0x0 KECCAK256 SWAP1 PUSH1 0x2 MUL ADD PUSH1 0x1 ADD SLOAD GT ISZERO PUSH2 0x282 JUMPI PUSH1 0x0 DUP2 DUP2 SLOAD DUP2 LT PUSH2 0x26A JUMPI PUSH2 0x269 PUSH2 0x6ED JUMP JUMPDEST JUMPDEST SWAP1 PUSH1 0x0 MSTORE PUSH1 0x20 PUSH1 0x0 KECCAK256 SWAP1 PUSH1 0x2 MUL ADD PUSH1 0x1 ADD SLOAD SWAP2 POP DUP1 SWAP3 POP JUMPDEST DUP1 DUP1 PUSH2 0x28D SWAP1 PUSH2 0x74B JUMP JUMPDEST SWAP2 POP POP PUSH2 0x21C JUMP JUMPDEST POP POP SWAP1 JUMP JUMPDEST PUSH1 0x3 PUSH1 0x20 MSTORE DUP1 PUSH1 0x0 MSTORE PUSH1 0x40 PUSH1 0x0 KECCAK256 PUSH1 0x0 SWAP2 POP SWAP1 POP SLOAD DUP2 JUMP JUMPDEST DUP1 PUSH2 0x2BC CALLER PUSH2 0x393 JUMP JUMPDEST LT ISZERO PUSH2 0x2FD JUMPI PUSH1 0x40 MLOAD PUSH32 0x8C379A000000000000000000000000000000000000000000000000000000000 DUP2 MSTORE PUSH1 0x4 ADD PUSH2 0x2F4 SWAP1 PUSH2 0x816 JUMP JUMPDEST PUSH1 0x40 MLOAD DUP1 SWAP2 SUB SWAP1 REVERT JUMPDEST DUP1 PUSH1 0x3 PUSH1 0x0 CALLER PUSH20 0xFFFFFFFFFFFFFFFFFFFFFFFFFFFFFFFFFFFFFFFF AND PUSH20 0xFFFFFFFFFFFFFFFFFFFFFFFFFFFFFFFFFFFFFFFF AND DUP2 MSTORE PUSH1 0x20 ADD SWAP1 DUP2 MSTORE PUSH1 0x20 ADD PUSH1 0x0 KECCAK256 PUSH1 0x0 DUP3 DUP3 SLOAD PUSH2 0x34C SWAP2 SWAP1 PUSH2 0x836 JUMP JUMPDEST SWAP3 POP POP DUP2 SWAP1 SSTORE POP DUP1 PUSH1 0x0 DUP4 DUP2 SLOAD DUP2 LT PUSH2 0x368 JUMPI PUSH2 0x367 PUSH2 0x6ED JUMP JUMPDEST JUMPDEST SWAP1 PUSH1 0x0 MSTORE PUSH1 0x20 PUSH1 0x0 KECCAK256 SWAP1 PUSH1 0x2 MUL ADD PUSH1 0x1 ADD PUSH1 0x0 DUP3 DUP3 SLOAD PUSH2 0x388 SWAP2 SWAP1 PUSH2 0x836 JUMP JUMPDEST SWAP3 POP POP DUP2 SWAP1 SSTORE POP POP POP JUMP JUMPDEST PUSH1 0x0 PUSH1 0x3 PUSH1 0x0 DUP4 PUSH20 0xFFFFFFFFFFFFFFFFFFFFFFFFFFFFFFFFFFFFFFFF AND PUSH20 0xFFFFFFFFFFFFFFFFFFFFFFFFFFFFFFFFFFFFFFFF AND DUP2 MSTORE PUSH1 0x20 ADD SWAP1 DUP2 MSTORE PUSH1 0x20 ADD PUSH1 0x0 KECCAK256 SLOAD PUSH1 0x1 PUSH1 0x0 SWAP1 SLOAD SWAP1 PUSH2 0x100 EXP SWAP1 DIV PUSH20 0xFFFFFFFFFFFFFFFFFFFFFFFFFFFFFFFFFFFFFFFF AND PUSH20 0xFFFFFFFFFFFFFFFFFFFFFFFFFFFFFFFFFFFFFFFF AND PUSH4 0x3A46B1A8 DUP5 PUSH1 0x2 SLOAD PUSH1 0x40 MLOAD DUP4 PUSH4 0xFFFFFFFF AND PUSH1 0xE0 SHL DUP2 MSTORE PUSH1 0x4 ADD PUSH2 0x434 SWAP3 SWAP2 SWAP1 PUSH2 0x879 JUMP JUMPDEST PUSH1 0x20 PUSH1 0x40 MLOAD DUP1 DUP4 SUB DUP2 DUP7 GAS STATICCALL ISZERO DUP1 ISZERO PUSH2 0x451 JUMPI RETURNDATASIZE PUSH1 0x0 DUP1 RETURNDATACOPY RETURNDATASIZE PUSH1 0x0 REVERT JUMPDEST POP POP POP POP PUSH1 0x40 MLOAD RETURNDATASIZE PUSH1 0x1F NOT PUSH1 0x1F DUP3 ADD AND DUP3 ADD DUP1 PUSH1 0x40 MSTORE POP DUP2 ADD SWAP1 PUSH2 0x475 SWAP2 SWAP1 PUSH2 0x8B7 JUMP JUMPDEST PUSH2 0x47F SWAP2 SWAP1 PUSH2 0x8E4 JUMP JUMPDEST SWAP1 POP SWAP2 SWAP1 POP JUMP JUMPDEST PUSH1 0x0 DUP1 PUSH2 0x491 PUSH2 0x212 JUMP JUMPDEST DUP2 SLOAD DUP2 LT PUSH2 0x4A2 JUMPI PUSH2 0x4A1 PUSH2 0x6ED JUMP JUMPDEST JUMPDEST SWAP1 PUSH1 0x0 MSTORE PUSH1 0x20 PUSH1 0x0 KECCAK256 SWAP1 PUSH1 0x2 MUL ADD PUSH1 0x0 ADD SLOAD SWAP1 POP SWAP1 JUMP JUMPDEST PUSH1 0x0 DUP1 REVERT JUMPDEST PUSH1 0x0 DUP2 SWAP1 POP SWAP2 SWAP1 POP JUMP JUMPDEST PUSH2 0x4D1 DUP2 PUSH2 0x4BE JUMP JUMPDEST DUP2 EQ PUSH2 0x4DC JUMPI PUSH1 0x0 DUP1 REVERT JUMPDEST POP JUMP JUMPDEST PUSH1 0x0 DUP2 CALLDATALOAD SWAP1 POP PUSH2 0x4EE DUP2 PUSH2 0x4C8 JUMP JUMPDEST SWAP3 SWAP2 POP POP JUMP JUMPDEST PUSH1 0x0 PUSH1 0x20 DUP3 DUP5 SUB SLT ISZERO PUSH2 0x50A JUMPI PUSH2 0x509 PUSH2 0x4B9 JUMP JUMPDEST JUMPDEST PUSH1 0x0 PUSH2 0x518 DUP5 DUP3 DUP6 ADD PUSH2 0x4DF JUMP JUMPDEST SWAP2 POP POP SWAP3 SWAP2 POP POP JUMP JUMPDEST PUSH1 0x0 DUP2 SWAP1 POP SWAP2 SWAP1 POP JUMP JUMPDEST PUSH2 0x534 DUP2 PUSH2 0x521 JUMP JUMPDEST DUP3 MSTORE POP POP JUMP JUMPDEST PUSH2 0x543 DUP2 PUSH2 0x4BE JUMP JUMPDEST DUP3 MSTORE POP POP JUMP JUMPDEST PUSH1 0x0 PUSH1 0x40 DUP3 ADD SWAP1 POP PUSH2 0x55E PUSH1 0x0 DUP4 ADD DUP6 PUSH2 0x52B JUMP JUMPDEST PUSH2 0x56B PUSH1 0x20 DUP4 ADD DUP5 PUSH2 0x53A JUMP JUMPDEST SWAP4 SWAP3 POP POP POP JUMP JUMPDEST PUSH1 0x0 PUSH1 0x20 DUP3 ADD SWAP1 POP PUSH2 0x587 PUSH1 0x0 DUP4 ADD DUP5 PUSH2 0x53A JUMP JUMPDEST SWAP3 SWAP2 POP POP JUMP JUMPDEST PUSH1 0x0 PUSH20 0xFFFFFFFFFFFFFFFFFFFFFFFFFFFFFFFFFFFFFFFF DUP3 AND SWAP1 POP SWAP2 SWAP1 POP JUMP JUMPDEST PUSH1 0x0 DUP2 SWAP1 POP SWAP2 SWAP1 POP JUMP JUMPDEST PUSH1 0x0 PUSH2 0x5D2 PUSH2 0x5CD PUSH2 0x5C8 DUP5 PUSH2 0x58D JUMP JUMPDEST PUSH2 0x5AD JUMP JUMPDEST PUSH2 0x58D JUMP JUMPDEST SWAP1 POP SWAP2 SWAP1 POP JUMP JUMPDEST PUSH1 0x0 PUSH2 0x5E4 DUP3 PUSH2 0x5B7 JUMP JUMPDEST SWAP1 POP SWAP2 SWAP1 POP JUMP JUMPDEST PUSH1 0x0 PUSH2 0x5F6 DUP3 PUSH2 0x5D9 JUMP JUMPDEST SWAP1 POP SWAP2 SWAP1 POP JUMP JUMPDEST PUSH2 0x606 DUP2 PUSH2 0x5EB JUMP JUMPDEST DUP3 MSTORE POP POP JUMP JUMPDEST PUSH1 0x0 PUSH1 0x20 DUP3 ADD SWAP1 POP PUSH2 0x621 PUSH1 0x0 DUP4 ADD DUP5 PUSH2 0x5FD JUMP JUMPDEST SWAP3 SWAP2 POP POP JUMP JUMPDEST PUSH1 0x0 PUSH2 0x632 DUP3 PUSH2 0x58D JUMP JUMPDEST SWAP1 POP SWAP2 SWAP1 POP JUMP JUMPDEST PUSH2 0x642 DUP2 PUSH2 0x627 JUMP JUMPDEST DUP2 EQ PUSH2 0x64D JUMPI PUSH1 0x0 DUP1 REVERT JUMPDEST POP JUMP JUMPDEST PUSH1 0x0 DUP2 CALLDATALOAD SWAP1 POP PUSH2 0x65F DUP2 PUSH2 0x639 JUMP JUMPDEST SWAP3 SWAP2 POP POP JUMP JUMPDEST PUSH1 0x0 PUSH1 0x20 DUP3 DUP5 SUB SLT ISZERO PUSH2 0x67B JUMPI PUSH2 0x67A PUSH2 0x4B9 JUMP JUMPDEST JUMPDEST PUSH1 0x0 PUSH2 0x689 DUP5 DUP3 DUP6 ADD PUSH2 0x650 JUMP JUMPDEST SWAP2 POP POP SWAP3 SWAP2 POP POP JUMP JUMPDEST PUSH1 0x0 DUP1 PUSH1 0x40 DUP4 DUP6 SUB SLT ISZERO PUSH2 0x6A9 JUMPI PUSH2 0x6A8 PUSH2 0x4B9 JUMP JUMPDEST JUMPDEST PUSH1 0x0 PUSH2 0x6B7 DUP6 DUP3 DUP7 ADD PUSH2 0x4DF JUMP JUMPDEST SWAP3 POP POP PUSH1 0x20 PUSH2 0x6C8 DUP6 DUP3 DUP7 ADD PUSH2 0x4DF JUMP JUMPDEST SWAP2 POP POP SWAP3 POP SWAP3 SWAP1 POP JUMP JUMPDEST PUSH1 0x0 PUSH1 0x20 DUP3 ADD SWAP1 POP PUSH2 0x6E7 PUSH1 0x0 DUP4 ADD DUP5 PUSH2 0x52B JUMP JUMPDEST SWAP3 SWAP2 POP POP JUMP JUMPDEST PUSH32 0x4E487B7100000000000000000000000000000000000000000000000000000000 PUSH1 0x0 MSTORE PUSH1 0x32 PUSH1 0x4 MSTORE PUSH1 0x24 PUSH1 0x0 REVERT JUMPDEST PUSH32 0x4E487B7100000000000000000000000000000000000000000000000000000000 PUSH1 0x0 MSTORE PUSH1 0x11 PUSH1 0x4 MSTORE PUSH1 0x24 PUSH1 0x0 REVERT JUMPDEST PUSH1 0x0 PUSH2 0x756 DUP3 PUSH2 0x4BE JUMP JUMPDEST SWAP2 POP PUSH32 0xFFFFFFFFFFFFFFFFFFFFFFFFFFFFFFFFFFFFFFFFFFFFFFFFFFFFFFFFFFFFFFFF DUP3 SUB PUSH2 0x788 JUMPI PUSH2 0x787 PUSH2 0x71C JUMP JUMPDEST JUMPDEST PUSH1 0x1 DUP3 ADD SWAP1 POP SWAP2 SWAP1 POP JUMP JUMPDEST PUSH1 0x0 DUP3 DUP3 MSTORE PUSH1 0x20 DUP3 ADD SWAP1 POP SWAP3 SWAP2 POP POP JUMP JUMPDEST PUSH32 0x546F6B656E697A656442616C6C6F743A20747279696E6720746F20766F746520 PUSH1 0x0 DUP3 ADD MSTORE PUSH32 0x6D6F7265207468616E20616C6C6F776564000000000000000000000000000000 PUSH1 0x20 DUP3 ADD MSTORE POP JUMP JUMPDEST PUSH1 0x0 PUSH2 0x800 PUSH1 0x31 DUP4 PUSH2 0x793 JUMP JUMPDEST SWAP2 POP PUSH2 0x80B DUP3 PUSH2 0x7A4 JUMP JUMPDEST PUSH1 0x40 DUP3 ADD SWAP1 POP SWAP2 SWAP1 POP JUMP JUMPDEST PUSH1 0x0 PUSH1 0x20 DUP3 ADD SWAP1 POP DUP2 DUP2 SUB PUSH1 0x0 DUP4 ADD MSTORE PUSH2 0x82F DUP2 PUSH2 0x7F3 JUMP JUMPDEST SWAP1 POP SWAP2 SWAP1 POP JUMP JUMPDEST PUSH1 0x0 PUSH2 0x841 DUP3 PUSH2 0x4BE JUMP JUMPDEST SWAP2 POP PUSH2 0x84C DUP4 PUSH2 0x4BE JUMP JUMPDEST SWAP3 POP DUP3 DUP3 ADD SWAP1 POP DUP1 DUP3 GT ISZERO PUSH2 0x864 JUMPI PUSH2 0x863 PUSH2 0x71C JUMP JUMPDEST JUMPDEST SWAP3 SWAP2 POP POP JUMP JUMPDEST PUSH2 0x873 DUP2 PUSH2 0x627 JUMP JUMPDEST DUP3 MSTORE POP POP JUMP JUMPDEST PUSH1 0x0 PUSH1 0x40 DUP3 ADD SWAP1 POP PUSH2 0x88E PUSH1 0x0 DUP4 ADD DUP6 PUSH2 0x86A JUMP JUMPDEST PUSH2 0x89B PUSH1 0x20 DUP4 ADD DUP5 PUSH2 0x53A JUMP JUMPDEST SWAP4 SWAP3 POP POP POP JUMP JUMPDEST PUSH1 0x0 DUP2 MLOAD SWAP1 POP PUSH2 0x8B1 DUP2 PUSH2 0x4C8 JUMP JUMPDEST SWAP3 SWAP2 POP POP JUMP JUMPDEST PUSH1 0x0 PUSH1 0x20 DUP3 DUP5 SUB SLT ISZERO PUSH2 0x8CD JUMPI PUSH2 0x8CC PUSH2 0x4B9 JUMP JUMPDEST JUMPDEST PUSH1 0x0 PUSH2 0x8DB DUP5 DUP3 DUP6 ADD PUSH2 0x8A2 JUMP JUMPDEST SWAP2 POP POP SWAP3 SWAP2 POP POP JUMP JUMPDEST PUSH1 0x0 PUSH2 0x8EF DUP3 PUSH2 0x4BE JUMP JUMPDEST SWAP2 POP PUSH2 0x8FA DUP4 PUSH2 0x4BE JUMP JUMPDEST SWAP3 POP DUP3 DUP3 SUB SWAP1 POP DUP2 DUP2 GT ISZERO PUSH2 0x912 JUMPI PUSH2 0x911 PUSH2 0x71C JUMP JUMPDEST JUMPDEST SWAP3 SWAP2 POP POP JUMP INVALID LOG2 PUSH5 0x6970667358 0x22 SLT KECCAK256 0xBA PC 0x25 PUSH26 0xA5718ABCF3F89F3CD488C8BC3CE25F8AA923B22F6BA9B2A444BF ISZERO 0x1F PUSH5 0x736F6C6343 STOP ADDMOD SGT STOP CALLER "},"methodIdentifiers":{"proposals(uint256)":"013cf08b","targetBlockNumber()":"2a8cd29e","tokenContract()":"55a373d6","vote(uint256,uint256)":"b384abef","votingPower(address)":"c07473f6","votingPowerSpent(address)":"a7200351","winnerName()":"e2ba53f0","winningProposal()":"609ff1bd"}}}}}